:1000000090710020396B0000E1690000356B000041
:10001000356B0000356B0000356B0000356B000060
:10002000000000000000000000000000356B000030
:10003000356B000000000000356B0000356B0000E0
:10004000ED4A000011430000114300008D43000001
:10005000ED390000593900008D3A0000D93A00000E
:1000600000000000CD650000F54F0000A96700000A
:100070000000000000000000FD660000000000001D
:100080000000000000000000000000000000000070
:100090000000000000000000000000000000000060
:1000A0000000000000000000000000000000000050
:1000B0000000000000000000000000000000000040
:10040000FFFFFFFFDFCEFFFFFCFF0F00FFFF0F002E
:10041000FCFF0F00FFFF0F00FCFF0F00FFFF0F00AE
:10042000FCFF0F20FFFF0F20FCFF7F40FFFF7F40FE
:10043000FCFF0D40FFFF0D40FFFFFFFFFFFFFFFF31
:10044000FFFFFFFFFFFFFFFFFFFFFFFFFFFFFFFFBC
:10045000FFFFFFFFFFFFFFFFFFFFFFFFFFFFFFFFAC
:10046000FFFFFFFFFFFFFFFFFFFFFFFFFFFFFFFF9C
:10047000FFFFFFFFFFFFFFFFFFFFFFFFFFFFFFFF8C
:10048000FFFFFFFFFFFFFFFFFFFFFFFFFFFFFFFF7C
:10049000FFFFFFFFFFFFFFFFFFFFFFFFFFFFFFFF6C
:1004A000FFFFFFFFFFFFFFFFFFFFFFFFFFFFFFFF5C
:1004B000FFFFFFFFFFFFFFFFFFFFFFFFFFFFFFFF4C
:1004C000FFFFFFFFFFFFFFFFFFFFFFFFFFFFFFFF3C
:1004D000FFFFFFFFFFFFFFFFFFFFFFFFFFFFFFFF2C
:1004E000FFFFFFFFFFFFFFFFFFFFFFFFFFFFFFFF1C
:1004F000FFFFFFFFFFFFFFFFFFFFFFFFFFFFFFFF0C
:1005000010B544F6E804C2F20004237863B940F25F
:100510000003C0F200032BB14CF21040C0F2000007
:1005200000E000BF0123237010BDC04640F200036D
:10053000C0F2000310B54BB144F6EC014CF2104090
:10054000C2F20001C0F2000000E000BF10BDC046D2
:100550004BF6145144F6042010B5C0F20001C2F26B
:10056000000004F061F900B910BD4BF668234BF6AA
:1005700094224BF67C202021C0F20003C0F200023E
:10058000C0F2000006F0F8F944F6042010B5C2F2FB
:10059000000004F0A9F810BD44F6042010B5C2F222
:1005A000000004F09BF810BD4BF6145144F60420F3
:1005B00010B5C0F20001C2F2000004F035F988B9AC
:1005C00044F60420C2F2000004F08EF840F2E83154
:1005D000642006F0D7F944F60420C2F2000004F0CB
:1005E0007DF810BD4BF668234BF68C224BF67C2031
:1005F0003221C0F20003C0F20002C0F2000006F097
:10060000BBF9C046F0B583B06B460826002501272C
:10061000DC1D6D00EDB244F68C10220040F2013179
:10062000C2F2000003F0D0FE2378002BF3D00121AA
:100630001E2006F0A7F944F68C10220040F201318A
:10064000C2F2000003F0C0FE2378012B01D13D432C
:10065000EDB244F68C10220040F20131C2F20000EB
:1006600003F0B2FE2378012BF3D0013EF6B2002E48
:10067000CFD1280003B0F0BD44F68C10F0B50522B0
:1006800083B040F20131C2F2000003F0D7FF44F61C
:100690008C10002240F20131C2F2000003F0C2FED1
:1006A00040F2E831122006F06DF944F68C10012278
:1006B00040F20131C2F2000003F0B4FE44F68C10A7
:1006C000002240F20131C2F2000003F0B7FF6B4696
:1006D0004FF6FE74DD1D02E0013CA4B2DCB144F62D
:1006E0008C102A0040F20131C2F2000003F06CFECF
:1006F0002B78012BF0D00AE044F68C102A0040F24F
:100700000131C2F2000003F05FFE2B7893B9013C87
:10071000A4B2002CF0D1002003B0F0BD44F68C1040
:100720002A0040F20131C2F2000003F04DFE2B78A6
:10073000012B04D1013CA4B2002CEFD1EBE744F62D
:100740002517FFF75FFFC2F2000744F62416387042
:10075000FFF758FFC2F2000644F66D153070FFF740
:1007600051FFC2F2000544F66C142870FFF74AFFEF
:10077000C2F200042070FFF745FF32783B789B18E7
:100780002A789B1822789A18FF231340181A42429D
:100790005041C0B2C0E7C04644F605130122C2F280
:1007A00000031A7044F604130278C2F200031A70B0
:1007B0007047C046F0B5D64646464F468046C0B55F
:1007C00044F605150F0044F69410002100239246CC
:1007D00044F61016012282B0C2F20005C4F21001E4
:1007E000C2F200002B7004F075FBC2F2000630600C
:1007F00000283DD12C78002CFCD044F60419C2F21C
:1008000000094B461B78DAB2002B00D07BE044F69F
:10081000941043462A7039005246C2F2000004F098
:100820009FFB6B463060DC1D18B15DE02378012B27
:1008300009D144F694102100C2F2000004F0AAF994
:1008400030600028F2D02B78002B3ED04B461B782E
:10085000012B2BD1002142463800C4F2100106F0D2
:100860004DFCA0B902B0E0BCBA46B146A846F0BD06
:100870004BF668234BF654324BF6A0201D21C0F2F4
:100880000003C0F20002C0F2000006F075F84BF65B
:1008900020334BF654324BF6A0203521C0F2000332
:1008A000C0F20002C0F2000006F066F84BF6F42336
:1008B0004BF654324BF6A0203321C0F20003C0F2B5
:1008C0000002C0F2000006F057F84BF6E0234BF6AA
:1008D00054324BF6A0203121C0F20003C0F20002D6
:1008E000C0F2000006F048F84BF668234BF654328D
:1008F0004BF6A0202721C0F20003C0F20002C0F294
:10090000000006F039F84BF6B4234BF654324BF6A0
:10091000A0202221C0F20003C0F20002C0F20000B9
:1009200006F02AF8F0B5574644F6201A4E464546DA
:10093000DE4644F62819C2F2000A5346E0B50678AE
:10094000C2F20009F6B21E6044F2EA684B464578EE
:1009500044F2966CEDB21D60C2F2000840F26C7376
:1009600042468478C2F2000CE3181380634644F2D6
:100970009467C178C2F20007198002793A804379FE
:1009800044F2E860C2F200009B460380172E02DDAD
:10099000002653461E603B2D02DD00254B461D60A0
:1009A000C72C03D940F2E77443461C800C2902D9B6
:1009B0000121634619801F2A01D901223A805B4632
:1009C000072B01D901230380F0BCBB46B246A946E0
:1009D000A046F0BD0378012B07D02BB944F638139D
:1009E0000122C2F200031A70704744F63912C2F2B3
:1009F00000021370F8E7C0460379022B05D144F6D4
:100A000070130122C2F200031A707047F0B5CE468F
:100A1000474680B5914683B0002A20DD884644F6DB
:100A2000101644F670140D000027C844C2F20006E8
:100A3000C2F20004002344F62420EB56012201A94F
:100A4000C2F20000019302F0A7FD306000B100BEC9
:100A50002378002BFCD0013527704545EAD1484664
:100A600003B0C0BCB946B046F0BDC0464BF69C735F
:100A700010B5C0F200031B6884B0180044F61014CF
:100A8000019302F049FAC2F200042060E0B944F692
:100A90008052C2F200021378002BFCD00023019890
:100AA000137002A9002202F0DBFA206050B9012382
:100AB0001900029A1140134207D144F63113C2F2D1
:100AC0000003197004B010BDFEE744F63112C2F203
:100AD00000021370F6E7C046F0B5DE4657464E46B4
:100AE000454644F68C10E0B50122ABB040F201312E
:100AF000C2F2000003F096FC40F2E83140F2E83028
:100B000005F040FF4BF6645144F6242044F61014DF
:100B1000C0F20001C2F2000002F0CAFDC2F20004FD
:100B2000206070B14BF668234BF648424BF66430B8
:100B30009C21C0F20003C0F20002C0F2000005F0E8
:100B40001BFF4BF6C44144F6E410C0F20001C2F2B0
:100B5000000003F069FE206070B14BF668234BF68D
:100B600048424BF66430A321C0F20003C0F20002F9
:100B7000C0F2000005F000FF44F6E410C2F20000ED
:100B800003F0B2FD4BF6884144F69410C0F2000128
:100B9000C2F2000004F0F8F806002060002852D1EC
:100BA0000020C4F21000FFF7BDFE44F6281344F203
:100BB000C465C2F2000311931B68C2F200056B60AA
:100BC00044F62013C2F2000312931B68E84A049310
:100BD000AB6044F29463C2F2000313931B88944603
:100BE000EB6044F29663C2F200030E931B884BF64F
:100BF0009C412B6144F2EA63C2F200030F931B880D
:100C000044F6CC1063446B6144F2E863C2F2000323
:100C100010931B88C0F20001C2F200002E60AB618D
:100C200003F0F2FA2060E8B14BF668234BF6484235
:100C30004BF66430BD21C0F20003C0F20002C0F2E6
:100C4000000005F099FE4BF668234BF648424BF640
:100C50006430AB21C0F20003C0F20002C0F2000019
:100C600005F08AFE44F6CC10C2F2000002F0BAFF92
:100C700044F6CC102900C2F2000003F0F5F844F667
:100C8000CC100E2144F29868C2F2000003F066F91D
:100C900044F6CC10C2F200084146C2F2000003F054
:100CA000A1F944F63C1340F26C7C2A68C2F20003BE
:100CB0001A601F936A68119B1A60129BAA681A60D7
:100CC000EB68139A13802B690E9A13806B690F9A45
:100CD00063441380AB69109A1380424644F60813AC
:100CE0009268C2F200031A60424644F60C1352683E
:100CF000C2F200031A604BF69C73C0F2000303CBF0
:100D000002F01EF8002800D030E144F61413C2F2BD
:100D10000003049344F63813C2F20003059344F62B
:100D20002C13C2F200031B9344F62D13C2F20003EE
:100D3000149344F62E13C2F20003159344F62F13B6
:100D4000C2F20003169344F66A13C2F2000317932B
:100D500044F66613C2F20003189344F66413C2F219
:100D60000003199344F66813C2F200031A9344F681
:100D70004013C2F200031C9344F66D13C2F2000349
:100D800044F6391B1E9344F62513C2F2000BC2F23F
:100D900000031D935B4644F6181744F290660693D1
:100DA000049B20601B78C2F2000721ACC2F200064F
:100DB00013BB069B1B78002B43D1059B1B7873B19B
:100DC0003368312B00DDE0E0012B00D1E0E0FFF7DC
:100DD000DBFB33680133642B00DD00233360FFF756
:100DE00045FE01F0B9FC40F2E8310A2005F0CAFDE9
:100DF000049B1B78002BDCD0002244F61811129BB8
:100E0000C4F210021B7806203B70119BC2F2000155
:100E10001B787B700F9B1B886C3BDBB2BB700E9BFF
:100E20001B78FB70139B1B783B71109B1B787B71AD
:100E3000FFF7C0FC0023049A1370069B1B78002B5D
:100E4000BBD044F6CC102100C2F2000002F0D0FE6C
:100E50000023FF20069AE568137023682269DBB23D
:100E6000994663680540DBB29A46A368D2B2DBB20A
:100E70009B46E3680B92DBB20A93A3686268034067
:100E800007932B002569A169024005400892C9B269
:100E90002A0065690C9121680D95A56901400991A9
:100EA0002840A18A0390099840F26C7C029008982F
:100EB00061440190079800904BF67830C0F2000032
:100EC00006F08AFD05982522037826214046825C9B
:100ED000415C4BF6A030DBB2C0F2000006F07CFDB6
:100EE0004046426881684BF6D430C0F2000006F0FC
:100EF00073FD0A23BBFBF3F11B988A00017058466F
:100F000052185200821A149840F26C7C0270BAFB9C
:100F1000F3F215989300027050469B185B00C31AB9
:100F200016980D9D03706B469A8D198D199B179815
:100F300019806B466544ADB2058018981B8E0280FF
:100F40001A989C4603804846A0B91C9800680D90EA
:100F500038B3FFF791FB4BF638401E9BC0F2000000
:100F60001A781D9B197806F037FD26E7FEE7C04684
:100F700094F8FFFF0522B9FBF2F293009B18C31A05
:100F8000DBB2002B00D018E7E3E7FFF705FB20E713
:100F9000FFF7DEFA4BF6F030C0F2000006F0A2FDDB
:100FA00017E71F98099B0360119B08981860129B14
:100FB00007981860139B062019800E9B44F61811A1
:100FC0001A8062460F9BC2F200011D80109BEDB299
:100FD0001A805B463B70534600227B700B9BBD70B2
:100FE000FB700A9BC4F210023B710C9B7B71FFF7F4
:100FF000E1FBAEE700B583B040B94CF200039022AC
:101000000121C4F27E03995403B000BD0228FBD134
:101010004BF67C4344F68C10C0F200035B68C2F2CE
:1010200000001900019303F0F7FAEDE710B5092865
:101030004AD8B14B80001B589F4644F68C100122C1
:1010400040F20311C2F2000003F0ECF9012244F671
:101050008C1040F20051C2F2000003F0E3F944F6B4
:101060008C10012240F20D21C2F2000003F0DAF9E7
:1010700044F68C10012240F20841C2F2000003F055
:10108000D1F9012244F68C1040F20741C2F200006F
:1010900003F0C8F9012244F68C1040F20211C2F2AA
:1010A000000003F0BFF9012244F68C100021C2F2C7
:1010B000000003F0B7F944F68C10002240F20C2136
:1010C000C2F2000003F0AEF910BD44F68C1001220C
:1010D00040F20311C2F2000003F0A4F9012244F629
:1010E0008C1040F20051C2F2000003F09BF944F66C
:1010F0008C10012240F20D21C2F2000003F092F99F
:10110000012244F68C1040F20841C2F2000003F0C4
:1011100089F90022B6E744F68C10012240F203114F
:10112000C2F2000003F07EF944F68C10012240F276
:101130000051C2F2000003F075F944F68C10012250
:1011400040F20D21C2F2000003F06CF944F68C105D
:10115000012240F20841C2F2000003F063F944F6B4
:101160008C10012240F20741C2F2000003F05AF94C
:10117000012244F68C1040F20211C2F2000003F08A
:1011800051F9002290E7002244F68C1040F203113E
:10119000C2F2000003F046F944F68C10012240F23E
:1011A0000051C2F2000003F03DF944F68C10012218
:1011B00040F20D21C2F2000003F034F944F68C1025
:1011C000002240F20841C2F2000003F02BF944F67D
:1011D0008C10002240F20741C2F2000003F022F915
:1011E0000022C6E744F68C10012240F20311C2F23D
:1011F000000003F017F944F68C10012240F2005170
:10120000C2F2000003F00EF944F68C10002240F206
:101210000D21C2F2000003F005F944F68C10012202
:1012200040F20841C2F2000003F0FCF8012244F64B
:101230008C1040F20741C2F2000003F0F3F80022E4
:1012400029E744F68C10012240F20311C2F200009B
:1012500003F0E8F844F68C10012240F20051C2F28B
:10126000000003F0DFF844F68C10012240F20D215B
:10127000C2F2000003F0D6F844F68C10012240F2CE
:101280000841C2F2000003F0CDF80022CFE744F697
:101290008C10002240F20311C2F2000003F0C2F8E9
:1012A00044F68C10012240F20051C2F2000003F01B
:1012B000B9F844F68C10012240F20D21C2F2000070
:1012C00003F0B0F800221CE744F68C10012240F233
:1012D0000311C2F2000003F0A5F80022FFE644F675
:1012E0008C10012240F20311C2F2000003F09AF8C0
:1012F0000022ACE6012247E754BC000070B544F67A
:101300008C140500C2F20004002240F204112000F7
:1013100003F088F8012240F20111200003F082F866
:10132000012240F20011200003F07CF8012240F27B
:101330000041200003F076F82800FFF777FE70BD2B
:1013400070B544F68C140500C2F20004012240F28C
:101350000411200003F066F8002240F20111200081
:1013600003F060F8012240F20011200003F05AF867
:10137000012240F20041200003F054F82800FFF75A
:1013800055FE70BD70B544F68C140500C2F2000421
:10139000012240F20411200003F044F8012240F23F
:1013A0000111200003F03EF8002240F2001120005D
:1013B00003F038F8012240F20041200003F032F837
:1013C0002800FFF733FE70BD70B544F68C1405009D
:1013D000C2F20004012240F20411200003F022F8BE
:1013E000012240F20111200003F01CF8012240F21A
:1013F0000011200003F016F8002240F20041200006
:1014000003F010F82800FFF711FE70BD10B544F688
:101410008C14C2F20004002240F20411200003F0F8
:1014200001F8012240F20111200002F0FBFF01222D
:1014300040F20011200002F0F5FF012240F20041CD
:10144000200002F0EFFF002240F20311200002F022
:10145000E9FF012240F20051200002F0E3FF0122E7
:1014600040F20D21200002F0DDFF012240F2084190
:10147000200002F0D7FF012240F20741200002F0D5
:10148000D1FF002240F20211200002F0CBFF012226
:101490000021200002F0C6FF002240F20C212000B3
:1014A00002F0C0FF10BDC04610B544F68C14C2F265
:1014B0000004002240F20411200002F0B3FF0122D8
:1014C00040F20111200002F0ADFF012240F20011B4
:1014D000200002F0A7FF012240F20041200002F0AC
:1014E000A1FF002240F20311200002F09BFF002226
:1014F00040F20051200002F095FF002240F20D2141
:10150000200002F08FFF002240F20841200002F08C
:1015100089FF002240F20741200002F083FF0022F1
:1015200040F20211200002F07DFF00220021200085
:1015300002F078FF002240F20C21200002F072FF3E
:1015400010BDC04610B544F68C14C2F2000401224E
:1015500040F20411200002F065FF002240F2011168
:10156000200002F05FFF012240F20011200002F093
:1015700059FF012240F20041200002F053FF0022F7
:1015800040F20311200002F04DFF002240F2005112
:10159000200002F047FF002240F20D21200002F05F
:1015A00041FF002240F20841200002F03BFF0022F0
:1015B00040F20741200002F035FF002240F2021104
:1015C000200002F02FFF00220021200002F02AFF5D
:1015D000002240F20C21200002F024FF10BDC04682
:1015E00010B544F68C14C2F20004012240F204113A
:1015F000200002F017FF002240F20111200002F04B
:1016000011FF012240F20011200002F00BFF012225
:1016100040F20041200002F005FF012240F20311D8
:10162000200002F0FFFE012240F20051200002F0F3
:10163000F9FE012240F20D21200002F0F3FE00220B
:1016400040F20841200002F0EDFE012240F2074185
:10165000200002F0E7FE012240F20211200002F019
:10166000E1FE01220021200002F0DCFE002240F217
:101670000C21200002F0D6FE10BDC04610B544F685
:101680008C14C2F20004012240F20411200002F086
:10169000C9FE012240F20111200002F0C3FE002227
:1016A00040F20011200002F0BDFE012240F2004194
:1016B000200002F0B7FE002240F20311200002F0E9
:1016C000B1FE012240F20051200002F0ABFE0122E7
:1016D00040F20D21200002F0A5FE012240F2084157
:1016E000200002F09FFE002240F20741200002F09D
:1016F00099FE012240F20211200002F093FE012225
:101700000021200002F08EFE002240F20C21200079
:1017100002F088FE10BDC04610B544F68C14C2F22B
:101720000004012240F20411200002F07BFE01229D
:1017300040F20111200002F075FE002240F200117B
:10174000200002F06FFE012240F20041200002F072
:1017500069FE002240F20311200002F063FE012224
:1017600040F20051200002F05DFE002240F20D2107
:10177000200002F057FE002240F20841200002F053
:1017800051FE012240F20741200002F04BFE0122EF
:1017900040F20211200002F045FE0122002120004B
:1017A00002F040FE002240F20C21200002F03AFE3E
:1017B00010BDC04610B544F68C14C2F200040122DC
:1017C00040F20411200002F02DFE012240F201112E
:1017D000200002F027FE002240F20011200002F05B
:1017E00021FE012240F20041200002F01BFE0122F6
:1017F00040F20311200002F015FE012240F20051D8
:10180000200002F00FFE002240F20D21200002F025
:1018100009FE002240F20841200002F003FE0022EF
:1018200040F20741200002F0FDFD012240F20211CA
:10183000200002F0F7FD01220021200002F0F2FD5D
:10184000002240F20C21200002F0ECFD10BDC04649
:1018500010B544F68C14C2F20004012240F20411C7
:10186000200002F0DFFD012240F20111200002F011
:10187000D9FD002240F20011200002F0D3FD012228
:1018800040F20041200002F0CDFD002240F20311A1
:10189000200002F0C7FD002240F20051200002F0BB
:1018A000C1FD002240F20D21200002F0BBFD00220C
:1018B00040F20841200002F0B5FD002240F207414D
:1018C000200002F0AFFD002240F20211200002F0E1
:1018D000A9FD00220021200002F0A4FD002240F218
:1018E0000C21200002F09EFD10BDC04610B544F64C
:1018F0008C14C2F20004012240F20411200002F014
:1019000091FD012240F20111200002F08BFD012225
:1019100040F20011200002F085FD002240F200415B
:10192000200002F07FFD012240F20311200002F0AE
:1019300079FD002240F20051200002F073FD0022E8
:1019400040F20D21200002F06DFD012240F208411D
:10195000200002F067FD012240F20741200002F062
:1019600061FD012240F20211200002F05BFD002225
:101970000021200002F056FD002240F20C21200040
:1019800002F050FD10BDC04610B544F68C14C2F2F2
:101990000004012240F20411200002F043FD012264
:1019A00040F20111200002F03DFD012240F2001141
:1019B000200002F037FD002240F20041200002F03A
:1019C00031FD002240F20311200002F02BFD012224
:1019D00040F20051200002F025FD012240F20D21CD
:1019E000200002F01FFD002240F20841200002F01A
:1019F00019FD012240F20741200002F013FD0122EF
:101A000040F20211200002F00DFD01220021200011
:101A100002F008FD002240F20C21200002F002FD3D
:101A200010BDC04610B544F68C14C2F20004012269
:101A300040F20411200002F0F5FC012240F20111F5
:101A4000200002F0EFFC012240F20011200002F021
:101A5000E9FC002240F20041200002F0E3FC0022F9
:101A600040F20311200002F0DDFC002240F20051A0
:101A7000200002F0D7FC002240F20D21200002F0ED
:101A8000D1FC002240F20841200002F0CBFC0022F1
:101A900040F20741200002F0C5FC002240F2021192
:101AA000200002F0BFFC00220021200002F0BAFC5E
:101AB000002240F20C21200002F0B4FC10BDC04610
:101AC00010B5040044F68C10012240F20411C2F259
:101AD000000002F0A7FC44F68C10012240F2001135
:101AE000C2F2000002F09EFC44F68C10012240F28B
:101AF0000041C2F2000002F095FC002C50D044F6E8
:101B00008C10002240F20111C2F2000002F08AFCA7
:101B100044F68C10002240F20311C2F2000002F0E1
:101B200081FC44F68C10002240F20051C2F2000009
:101B300002F078FC44F68C10002240F20D21C2F233
:101B4000000002F06FFC44F68C10002240F20841C5
:101B5000C2F2000002F066FC44F68C10002240F253
:101B60000741C2F2000002F05DFC44F68C10002236
:101B700040F20211C2F2000002F054FC44F68C1054
:101B800000220021C2F2000002F04CFC44F68C104E
:101B9000012240F20C21C2F2000002F043FC10BD11
:101BA00044F68C10012240F20111C2F2000002F052
:101BB00039FC44F68C10002240F20311C2F20000FE
:101BC00002F030FC44F68C10002240F20051C2F2C8
:101BD000000002F027FC44F68C10002240F20D2198
:101BE000C2F2000002F01EFC44F68C10002240F20B
:101BF0000841C2F2000002F015FC44F68C100022ED
:101C000040F20741C2F2000002F00CFC44F68C10D6
:101C1000002240F20211C2F2000002F003FC44F67E
:101C20008C1000220021C2F2000002F0FBFB44F6FF
:101C30008C10002240F20C21C2F2000002F0F2FBF4
:101C4000ADE7C04670B50079A8BB44F66E1144F606
:101C50008415C2F20001C2F200050A882B88013205
:101C6000013392B29BB20A802B80C82A24D840F25A
:101C7000F412934201D900232B8044F64014C2F29F
:101C800000042368D3B944F63014C2F20004237868
:101C9000002B64D0012B00D1B7E0022B00D1D5E09E
:101CA000032B00D105E1042B00D1CBE00133DBB2E3
:101CB000052B40D0237070BD0880D8E7012B3DD0A4
:101CC000022B55D0032B00D1C9E0042B00D1A5E095
:101CD000052B00D180E0062B00D107E1072B00D1B6
:101CE0004CE1082B00D19DE1092B00D1E8E10A2B42
:101CF00000D112E20B2B00D1A1E20C2B00D155E256
:101D00000D2B00D1DEE20E2B00D13AE30F2B00D1D8
:101D100065E3102B01D100F00AFC112B01D100F07A
:101D2000F3FB122B01D100F087FC44F63014C2F211
:101D300000042378BAE700232370BCE744F630148C
:101D40000B88C2F20004632B19D92378002B00D131
:101D5000B8E0012B18D1FFF7F5FB2378A6E744F68E
:101D60002C13C2F200031878FFF7C8FA23789DE716
:101D700044F630140B88C2F20004632B12D8237887
:101D8000F3B1012B00D1A1E0022B00D1CEE0032B57
:101D900000D1D7E0042B00D088E70120FFF790FEA8
:101DA000237883E723785BB1012B00D18EE0022BEF
:101DB00000D192E1032BEDD1FFF734FE237875E7D4
:101DC00044F62013C2F2000318680A2390FBF3F0D4
:101DD000FFF794FA237869E744F63014C2F200045E
:101DE0002378002B00D1ECE0012B00D190E1022BF5
:101DF00000D1BAE1032B00D1C7E1042B00D055E795
:101E00000020FFF75DFE237850E744F62D13C2F261
:101E100000031878FFF794FA237847E744F6301464
:101E2000C2F200042378002B00D19BE0012B00D1EB
:101E300033E1022B00D154E1032BDED1FFF756FD35
:101E4000237833E72B88C72BDAD8A6E744F62E137E
:101E5000C2F200031878FFF795FA237826E744F6D4
:101E60003C1344F2C461C2F200031B68C2F20001D9
:101E70000B6044F62813C2F200031B6844F6CC1032
:101E80004B6044F62013C2F200031B68C2F200004C
:101E90008B6001F0E9FF0023236044F6141344F63D
:101EA00030140122C2F20003C2F200041A70237837
:101EB000FCE644F62F13C2F200031878FFF784FA09
:101EC0002378F3E6FFF7F0FA2378EFE644F62013E1
:101ED0000A20C2F200031B6893FBF0F29000801806
:101EE0004000181AFFF72CFA2378DFE644F6721543
:101EF00040F2CF73C2F200052A889A4266D844F6AF
:101F00003014C2F200042378002B00D121E1012B10
:101F100000D1C1E1022B00D11AE2032B00D13FE234
:101F2000042B00D1F0E001322A80BFE644F62813EA
:101F3000C2F2000318680A2390FBF3F0FFF722FABD
:101F40002378B3E644F628130A20C2F200031B6884
:101F500093FBF0F2900080184000181AFFF734FA53
:101F60002378A3E644F66D13C2F2000318780A231F
:101F7000B0FBF3F0FFF7C2F9237897E644F630148C
:101F80000B88C2F20004632B7AD82378002B00D18F
:101F9000FFE0012B00D1EBE1022B00D105E2032B86
:101FA00000D02AE744F2EA63C2F200030A201B8849
:101FB000B3FBF0F25043181A80B2FFF705FA23780A
:101FC00074E644F62513C2F20003CFE744F630145A
:101FD000BA49C2F20004511889B2994200D984E08A
:101FE0002378002B00D11FE1012B00D1EEE1022B61
:101FF00000D149E2032B93D144F29463C2F200036F
:102000000A201B88B3FBF0F25043181A80B2FFF786
:10201000DBF941F270732A889A424FD900232B8052
:10202000237843E644F630140B88C2F20004632B95
:1020300011D92378002B00D144E7012B00D18AE687
:10204000022B00D160E1032B00D0D6E644F294636A
:10205000C2F20003AAE72378002B00D189E0012B0C
:10206000EED144F29663C2F200031B880A20B3FB50
:10207000F0F25043181A80B2FFF762F9237815E6A0
:102080002378002B00D11DE7012B00D163E6022B42
:1020900023D0032B00D0B0E68EE644F66D13C2F2D7
:1020A00000030A201B78B3FBF0F290008018400078
:1020B000181AC0B2FFF744F92378F7E5237832E71E
:1020C00044F630140B88C2F20004632BC3D9237882
:1020D000002B4ED0012BDAD1C3E7FFF7B9FB2378F1
:1020E000E4E5FFF767FB2378E0E52378002B00D1D8
:1020F00097E0012B00D16FE1022B00D1DCE1032B33
:1021000000D1D1E1042B84D10020FFF7D9FC80E776
:1021100044F62513C2F20003C3E744F630140B88DB
:10212000C2F20004632B6ED82378002B00D1F7E0B5
:10213000012B00D1B3E1022B6FD0032B00D05CE662
:1021400044F2E863C2F200031888FFF73DF92378F0
:10215000ACE544F2EA63C2F20003188840F2E833C7
:10216000B0FBF3F0FFF7CAF853E7FFF7D5FA23788F
:102170009CE544F29663C2F2000318880A23B0FB80
:10218000F3F0FFF7BBF8237890E5FFF7FDFB23782A
:102190008CE544F2EA63C2F20003188840F2E833A7
:1021A000B0FBF3F0FFF7AAF823787FE544F630148C
:1021B000C2F200042378002B00D156E1012B00D19C
:1021C00082E1022B00D112E2032B00D1FEE144F6A2
:1021D0008016C2F20006042B00D1CCE13368012B3B
:1021E00000D134E1022B00D0A3E52B88F92B00D9D4
:1021F000BEE1012B00D127E1FEF7C6F92B880133A0
:102200002B80237852E52378002B00D188E0012B26
:1022100000D144E1022B00D03BE7FFF72FFA2378EF
:1022200044E5FFF7F3F8F4E644F29663C2F20003E4
:1022300018880A23B0FBF3F0FFF760F8E9E644F2F0
:10224000EA631F4A44F2C4619446C2F200031B8849
:10225000C2F2000163444B6144F29663C2F2000390
:102260001B8844F6CC100B6144F29463C2F2000365
:102270001B88C2F20000CB6044F2E863C2F20003A4
:102280001B888B6101F0F0FD44F672130022C2F24C
:1022900000031A800623FFE544F2EA636422C2F2D7
:1022A00000031B88B3FBF2F30A20B3FBF0F25043A8
:1022B000181A80B2FFF744F8ABE6C04630F8FFFFCB
:1022C00094F8FFFF44F630140B88C2F20004632B2D
:1022D0002AD92378002B00D1F4E5012B00D13AE56F
:1022E000022B00D19DE1032B00D053E544F67C1373
:1022F000C2F2000318680A2390FBF3F25343C01A9A
:10230000FFF762F82378D1E444F29463C2F2000349
:1023100018880A23B0FBF3F0FFF734F82378C5E4FC
:10232000FFF774F82378C1E42378002B00D1C6E0CE
:10233000012BD5D144F67813C2F2000318680A23A2
:1023400090FBF3F25343C01AFEF7FAFF2378ADE493
:1023500044F2EA630A20C2F200031B88B3FBF0F3E5
:10236000B3FBF0F25043181A80B2FFF70BF850E6B7
:1023700044F2EA636422C2F200031B88B3FBF2F367
:1023800074E644F630140B88C2F20004632BCBD9F8
:102390002378002B00D192E0012B00D007E5C9E79C
:1023A00044F2EA63C2F200032AE644F2EA630A2036
:1023B000C2F200031B88B3FBF0F3B3FBF0F250430F
:1023C000181A80B2FEF7DEFF23786FE444F29663BA
:1023D000C2F200031B8867E7FFF702F919E644F62B
:1023E0003014C2F200042378002B00D10EE1012B3F
:1023F00000D1CFE0022B00D16BE1032B00D18AE1A9
:10240000042B00D183E144F68816C2F2000633683B
:10241000012B00D1CBE03368022B00D089E444F2D9
:10242000EC65C2F200052B88632B00D8E1E61A00A8
:10243000653A622A00D89BE01A00C93A622A00D99C
:1024400052E1C92B00D0D7E6FEF782F8D6E644F673
:10245000741340F2F311C2F200031A888A4244D87E
:1024600001321A802378FFF721FC44F67813C2F278
:10247000000318680A2344F6801690FBF3F0FEF779
:102480003DFFC2F20006A9E644F29463C2F20003E3
:1024900018880A23B0FBF3F0FEF774FFB9E5FFF7E5
:1024A0009FF82378FFF702FC44F2E863C2F20003CE
:1024B0001888FEF789FFACE5FFF7E0F8A9E544F6D8
:1024C0007813C2F200037FE444F67813C2F20003EB
:1024D00018680A2390FBF3F244F680165343C01A9F
:1024E000FEF72EFFC2F2000678E600221A8044F6BC
:1024F0007C13C2F200031A68002A00DCB6E0013A3D
:102500001A602378FFF7D2FB44F630140B88C2F22E
:102510000004632B26D92378002B00D186E0012B01
:1025200000D044E444F60813C2F2000306E744F680
:1025300030140B88C2F20004632B13D92378002BCC
:1025400000D1BFE4012B01D1FFF705FC022B00D124
:10255000B7E0032B01D0FFF71DFC44F60C13C2F2C9
:102560000003C7E62378002B60D0012BEED1D9E71A
:10257000FEF712F842E63368002B00D1D8E02B8832
:10258000F92B00D9BFE00120FFF79AFA2B8801331D
:102590002B8023E644F29863C2F2000398680A2372
:1025A00090FBF3F25343C01AFEF7CAFE2BE744F246
:1025B000EC65C2F200052B88632B65D8012B6DD02A
:1025C000FDF7E2FF2B8801332B8024E744F67C13D0
:1025D000C2F2000318680A2390FBF3F244F6801657
:1025E0005343C01AFEF7F0FEC2F20006F6E544F6C9
:1025F0007C13C2F2000318680A2344F6801690FB8D
:10260000F3F0FEF7BFFEC2F20006E7E544F298637E
:10261000C2F2000398680A2390FBF3F0FEF76EFE07
:10262000F1E644F67C13C2F2000383E444F6081397
:10263000C2F20003FFF7C8FB44F6081344F29861A6
:10264000C2F200031B68C2F200018B6044F60C1357
:1026500044F6CC10C2F200031B68C2F200004B60CB
:1026600001F0C0FC0F232360FFF75FFB44F67812F4
:10267000C2F200021168002928DD013911603B22F5
:102680001A602378FFF712FB1A00653A622A15D9FF
:102690001A00C93A622A04D8C92B91D1FDF758FF14
:1026A00090E71A002E3AFF3A622A07D940F29012B8
:1026B000934287D9002333602B8083E7FDF76CFFBB
:1026C00080E744F60C13C2F2000333E402233360C4
:1026D0008BE544F29863C2F2000358680A2390FB2A
:1026E000F3F0FEF74FFE8EE61A002E3AFF3A622A0A
:1026F00000D83DE7643A622A1ED840F29112934214
:1027000000D079E5A0E60020FFF7DAF93EE70120E6
:10271000FFF7D6F977E644F29863C2F200035868EF
:102720000A2390FBF3F25343C01AFEF74DFE6AE60C
:102730000120FFF7C5F951E51A00F63AFF3A622A7F
:1027400000D815E740F25822934200D856E50023FE
:1027500033602B8052E5C046F8B544F6441744F682
:102760008C10C2F200073A0040F2072144F64C16E2
:10277000C2F2000001F028FE44F68C10C2F20006FE
:10278000320040F2082144F65415C2F2000001F074
:102790001BFE44F68C10C2F200052A0040F60D1113
:1027A00044F65C14C2F2000001F00EFE44F68C10F8
:1027B000C2F20004220040F60E11C2F2000001F045
:1027C00003FE39783278287824788B181B181B1967
:1027D000042B00D17FE041BB32B328B324B344F6CD
:1027E0003113C2F200031B78F3B944F6481240F2E9
:1027F0001F31C2F2000213688B4201DC0133136007
:10280000C82293FBF2F144F640154A43C2F2000598
:10281000991A934200D013E12B68032B00DD41E1AC
:1028200000D17DE101332B60F8BD002A00D1B3E077
:10283000002872D0002C00D1C6E044F63113C2F259
:1028400000031B78002BEFD044F63413C2F20003D0
:102850001A68132A00DCEAE000241C6044F63813EE
:10286000C2F200031A78002A00D037E144F640157E
:10287000C2F200052A68002A00D138E1042A00D1FA
:1028800097E1062A00D132E1511E012900D898E1D2
:10289000052A00D1E4E10C2A00D1B5E10F2AC3D109
:1028A0001B78D9B2002BBFD144F298632620C2F224
:1028B00000031A5C002A00D115E225229C5C002C42
:1028C00000D110E29954195444F68813243AC2F204
:1028D00000031A60A8E744F63113C2F200031B7824
:1028E000002B00D077E744F64812C2F200021360D2
:1028F00044F65012C2F20002136044F65812C2F2BB
:102900000002136044F66012C2F20002136044F643
:102910003412C2F20002136086E7002C00D183E774
:1029200044F63113C2F200031B78002B00D07BE782
:1029300044F65813C2F200031A681D2A77DD1860A6
:1029400044F64013C2F200031B68012B68D0022B2F
:1029500000D1BAE0072B00D1F4E0082B00D114E13C
:10296000092B00D130E10A2B00D166E10D2B00D1FB
:1029700084E10E2B00D193E1102B00D1CBE1112B80
:1029800000D051E744F60C13C2F200031A683A2A49
:102990004DDD00221A6047E7002800D144E7002CF3
:1029A00000D141E744F63113C2F200031B78002B3B
:1029B00000D039E744F65013C2F2000319681D290C
:1029C00045DC013119602FE744F63113C2F20003F0
:1029D0001B78002B00D027E744F66015C2F20005F3
:1029E0002B68132B00DC1DE7FDF7DEFD2C6044F6A1
:1029F0004015C2F200052B68002B59D0062B00D1E0
:102A0000BDE00C2B00D1D9E00F2B1DD01A1F012ADD
:102A10004ED9013B012B00D906E703232B6003E7C6
:102A200044F62013C2F200031A68162A54DC01325D
:102A30001A60F9E61A000F3A032A01D801332B6015
:102A40002B68132B00D0EFE600232B60ECE61A6016
:102A500044F64013C2F200031B68012B2BD0022B5B
:102A600054D0072B5ED0082B00D198E0092B00D161
:102A7000B9E00A2B00D1E8E00D2B00D1F3E00E2BDA
:102A800000D116E1102B00D124E1112B00D0CBE6B0
:102A900044F60C13C2F200031A68002A3DDD013A25
:102AA0001A60C1E69A1F052A26D80B2B00D0B9E67A
:102AB00006232B60B8E644F62013C2F200031A681E
:102AC000002AECDC17221A60AEE644F62813C2F2A4
:102AD00000031A683A2AAADD1860A5E61C70FDF703
:102AE0005BFD44F29063C2F200031C609CE6FDF7BC
:102AF0005BFD04232B6097E61A000C3A022A99D852
:102B00000E2B00D08EE60C232B608DE644F62813A6
:102B1000C2F200031A68002AC1DC3B221A6083E675
:102B2000296081E644F2EA6340F26C71C2F200036C
:102B30001A888A4203D840F633021A8074E6013AB2
:102B40001A8071E644F2EA6340F63201C2F20003F1
:102B50001A888A4210D940F26C721A8064E641F2F7
:102B6000AA52DA40D20700D4C9E044F29463C2F218
:102B700000031A881E2A0FD801321A8054E644F640
:102B80007213C2F200031C80BDE744F29663C2F2E6
:102B900000031A880B2AEFD901221A8044E644F276
:102BA0009663C2F200031A88012AC8D80C221A8040
:102BB0003AE6FDF7F9FC05232B6035E603332B607D
:102BC00032E6FDF7F1FC28E744F29663C2F2000317
:102BD0001B880C2BC3D944F29463C2F200031A88F9
:102BE0001D2AD9D8C8E744F29463C2F200031A88B8
:102BF000012AA4D844F29662C2F2000212880C2A7A
:102C000060D91E221A800FE644F68014C2F2000436
:102C10002368E3BB44F6781344F67C12C2F2000347
:102C2000C2F200021B6812681343002B00D1FBE5BF
:102C3000FDF7BAFC01232360F6E544F2E863C2F233
:102C400000031A88062AA7D896E744F2E863C2F27E
:102C500000031A88012A00D971E707221A80E3E5E8
:102C6000FDF7A2FCF0E644F67813C2F200031A68FE
:102C7000002A00DD13E73C221A60D5E544F67813FC
:102C8000C2F200031A683B2A00DD82E6CFE6013B70
:102C9000012B00D9C8E5FDF787FC00232360C3E5BD
:102CA00044F67C13C2F200031A683A2A00DD70E68B
:102CB000BDE644F67C13C2F200031A68002A00DD68
:102CC000EDE62AE741F2AA51D140C9072CD51F22CF
:102CD0001A80A9E544F60813C2F200031A68002A14
:102CE00000DDDCE6EEE6012226215A5401395A5471
:102CF00044F688139218C2F200031A6094E5022B7E
:102D000000D068E744F29463C2F200031A881A2ADA
:102D100000D941E730E744F60813C2F200031A680D
:102D2000162A00DD35E682E6022A00D069E71B227A
:102D30001A8079E510B5FDF7CFFE002010BDC04622
:102D4000F0B557464E46DE46454645F24353E0B59C
:102D50000268C5F24F4306000F0085B09A4200D1C9
:102D6000D7E00A688167002A00D17EE044F65E233E
:102D7000C2F200031978012900D88AE03B7C98460A
:102D8000F97C3C7D0800431E984102234042984351
:102D9000033004B903203B8B13B18B4200D2ABE06C
:102DA0002C2571552D217454F98A33864346F185BB
:102DB000ABB3B36939009B46F36900259A46336A81
:102DC00057469946736AB2460093B36A002401934A
:102DD00033698446029373695E4603938B460023EE
:102DE000023210885188884201D240F2030C4946D1
:102DF0000098F452FC52CC52590044500199029868
:102E0000CC5211880135C15251880398EDB2C1529C
:102E1000063202334545E4D1604656465F4620B34C
:102E200044F6B421FB69BA7E5B68C2F200011B7EE6
:102E300052005B008B523D7CEC00641B02341B197A
:102E40009BB28B5205338B5244F6C423C2F200036B
:102E50001E6045F24353C5F24F43336005B0F0BCEA
:102E6000BB46B246A946A046F0BDFB69F3670BCB53
:102E70001B68984744F6B421FB69BA7E5B683C68DE
:102E80001B7EC2F200015B0052008B52002CD2D19B
:102E9000D8E744F668244800C2F200040419B4617B
:102EA00044F6642444F65425C2F200040419F46183
:102EB00044F66024C2F20005AC46C2F200040419D4
:102EC00034628C006444746244F65824C2F20004F4
:102ED0000419B46244F66C24C2F20004041934618B
:102EE00044F65C24C2F20004A44660447061387C5D
:102EF00080464144197043E72C2031542D217454ED
:102F0000F98A33864346F1852938002B00D050E7F3
:102F100086E70E20A2E7C04644F6C423C2F20003AF
:102F200010B51860C36F18689B685B68984710BD40
:102F30000020704710B5C46F2068A4686469A0477A
:102F400010BDC046F0B5CE46474680B5C36F0500FC
:102F500018689B6883B09B68894601A9984741F22D
:102F6000707398422AD00233984227D0AB6F187CF6
:102F700018B3EB6F40F2000C5B6801AA5F79002385
:102F800004E00133D9B20232884216D9012FF8D1B8
:102F9000AE6959001488765AA41B14D44E46F6889C
:102FA000013374432E690232765A94FBF6F44E468E
:102FB00036687452D9B28842E8D8002003B0C0BC49
:102FC000B946B046F0BD4C46664624686652D8E71E
:102FD000F0B54E46DE4657464546E0B5836F1A7C4F
:102FE000914692B30A7A4FF6FF7B904640F2640C0A
:102FF00000221D6804690E68406902352B88013281
:103000009A465746CB88D2B27B438F880635B3FBAE
:10301000F7F35F4623803B4047467B4393FBFCF33B
:10302000038023889A465746338802367B435F469F
:10303000B3FBFCF323803B4047467B43B3FBFCF3ED
:103040000234038002304A45D8D10020F0BCBB4690
:10305000B246A946A046F0BDC18500207047C046D3
:10306000F0B5DE4657464E464546E0B5C36F040010
:1030700018689B688DB09B688A460BA9984741F2F7
:103080007073984200D15DE10233984200D159E15A
:10309000A16F0B7C9846002B00D114E2E36F40F245
:1030A00000099B465B6850465B7900229C46A368FA
:1030B00065460293E3688C46019349460023A6695E
:1030C0000094039007E0F75AF018CFB10132D0B264
:1030D000023380451AD9012DF5D1604659000068A8
:1030E000C918095C0820490009180AA88146F75A3E
:1030F00049440439B9460988F018002F00D0C5E0CA
:1031000001320180D0B202338045E4D8039B61468E
:103110009A46009C5346029A1A60019A5A608E7E23
:10312000002E00D1D6E144F6B42500230020C2F2DF
:1031300000052A8801309B1880B29BB20235B0424C
:10314000F7D35A1C92B291469A1C92B292461E1D17
:10315000DA1C92B2B6B2904632005D1DADB244F6B2
:10316000B120C2F2000000900078844644F670203E
:103170006746C2F20000C7544F4640F208098B7EF2
:10318000C3555B464F465B685B79BB43012B00D15F
:10319000DFE001235746C355CB695B6899464F462C
:1031A0001B7E7F7E7B434746DBB2C3555F00F3B196
:1031B000A146002300223C00884652000BA9895AF0
:1031C000751C8A4631000BAEB25C01334254524644
:1031D000ADB2120A8E1C9BB24255B6B21A00A3427F
:1031E000EBDB0D004C46414632000335ADB20B7CA3
:1031F000002B00D19EE0002383540B7CB21C43556E
:1032000040F22009002540F201088B4692B28BBBA8
:1032100072E1E168D9400B00464633408354A76908
:103220006B00FF5C561CB6B28755A769961CFF5A07
:10323000B6B23F0A87552769D61CFF5CB6B28755E0
:103240002769161DFF5AB6B23F0A87556169571D97
:10325000C95CBFB2C1556169961DCB5AB6B21B0A93
:1032600083555B4601351E7C1700ABB2073292B224
:103270009E425CD920235B42EB18CAD54B46E668D8
:103280005B1B9E40A368EB403343C5E7009C276966
:103290004FF6FF74FF5ABA46D144A1450BDC89456D
:1032A00000D2CAE04F46009C6469E45A3C1BA4B2B9
:1032B000A14200D288E0009CE78D002F00D105E7F5
:1032C0001400203CA14664D44F46019CFC40A1461A
:1032D00001274C463C4004944C463C426AD197003E
:1032E000B946009F7F6ABA46D1444F463F684C4674
:1032F000BA468A44574627600597009FBF6ABA4678
:103300009A445446009FBF6AFF5A0137BFB22780D4
:10331000009CE48DA74200D2D8E6059FB7FBF4F7E6
:10332000544607804F46049838602080CEE63D0022
:103330000835ADB26346009901330B706346835480
:10334000435D00200DB0F0BCBB46B246A946A04686
:10335000F0BD00235746C355CB695B681B7E994679
:1033600043464F46C754BBB2002F00D13FE70AAADD
:10337000958812792D0A8255721C92B25B00855491
:10338000F618B6B20B7C751C3200ADB2002BD1D052
:1033900031E72024A41AA1464F46019CBC40029F5D
:1033A000D7403C43A14601274C463C4004944C4640
:1033B0003C4294D00027009C9000646A075100248E
:1033C0000098806AC45281E60027009CE469E752B5
:1033D000009F3C6AA14699444C4604943C6AE45AD6
:1033E000A1462D243C5D4C451BD81400203CA14631
:1033F00000D589E02C004F46BC40A24601249440F1
:10340000A1464F46029CBC4302945446019FA743E9
:103410000497029C0197009FBC60049F009CE7609A
:1034200049E740F2010AD1444F46049C2780009CA2
:10343000E78D002F00D149E642E7009F3C6A002754
:10344000E7522C24009F3C5DFF69A246B94699448F
:103450004F460497009FFF69FF5AB946BC42E0D827
:10346000202714007F42E7193FD42C00BC4007946A
:1034700001249440029F099427430697079C019FCB
:103480003C430594069F0894009CA760059C009F00
:10349000FC6054463F8EBC4231D2B9453CD3029CBD
:1034A000099FBC430294079F019CBC430594009F65
:1034B0000194029CBC60059F009CE7600027049C6F
:1034C00027800180F7E6E36F9B46A3680293E368D9
:1034D00001931FE605250422042640F2030840F26A
:1034E000020A40F20109002339E62024A41A270029
:1034F0002C00FC400794BBE70336B5B21AE7069CE4
:103500000294089C0194D6E62024A41AA1462C001B
:103510004F46FC40A24671E740F2010AD1444F46B3
:10352000049C2780069C0294089C0194C3E6C04634
:1035300010B570B145F243530268C5F24F439A4249
:1035400005D1C36F18689B68DB68984710BD0720DA
:10355000FCE70120FAE7C04610B50400C8B145F207
:1035600043530268C5F24F439A4210D144F65E239A
:10357000816FC2F200031A78097C521A1A70C36F65
:1035800018689B689B6998470023236010BD07203B
:10359000FCE70120FAE7C0467B2330B5046AA57832
:1035A0002B40A37083789B079B0FD21A0261802265
:1035B000CB18C360A3781343A3700323827813400E
:1035C000022B03D00B78E370002030BD4FF6006271
:1035D0000B881343E381F7E7F0B51F25012415405D
:1035E000AC404EF20015C64653092033CEF200051A
:1035F0009B0000B588465C51BFF34F8FBFF36F8FC0
:10360000130046F20004C033C4F200049B001D59AD
:10361000124E35401D511B594EF20011FF24032557
:10362000CEF200018C46210040F200371540ED003B
:10363000A94093089B006344DE5992008E434146A3
:1036400089010C40AC403443DC5144F6E033C2F213
:103650000003D05080BCB846F0BDC046FFFFFEFF5F
:10366000F0B5C64600B50500806A84B08C46904629
:103670006C46D8B12300060086CE86C336681E602D
:10368000EB691B7803606346836043460371EB6A12
:10369000C3606B6A9847AB6A23B107CC07C31A00B3
:1036A0002368136004B080BCB846F0BD2000E7E793
:1036B00043F60002C0F200229446F8B54546DE46C5
:1036C00057464E460B78E0B563445B010362002326
:1036D00003704A690D0042628A69C161C2620322B5
:1036E000012183628378040093430B4383706B78DA
:1036F00023B9837893430222134383700B22200063
:10370000AA56A97AFFF768FF05222000AA56297950
:10371000FFF762FF07222000AA56A979FFF75CFF96
:1037200009222000AA56297AFFF756FFEFF31086E8
:10373000012080F31088802146F6FC732F7809065B
:10374000F940C4F204035A688A435A605B6886F3FE
:1037500010880022236A29789A701A715A729A7214
:10376000DA725A8340F20722CA40104201D0402246
:10377000DA7406221A776878AA78EE78E9692D78E3
:103780000DB9734D9D821201F6003243032800D11A
:10379000D9E0451EA8410001E230D2B21A700222DF
:1037A0009871087BFF264000024020205A734A7817
:1037B0008D78D2016D0128403240024300201872FA
:1037C0000878851E8346012D00D8B4E003274D6894
:1037D000D2B2DA71AA786E785A701A783E40BA433B
:1037E00032431A70EA7859379A74DE792A78BE43E0
:1037F0003A403243DA71002305222361A361E3607A
:103800006361E369534F9A5646F200031500C035D1
:10381000C4F20003AD00EE58BC463E40EE50ED58F9
:10382000BFF35F8F40F21F0A01265546370015404F
:10383000AF404EF20015CEF20005A94640F28015C9
:10384000520992004A445751176040F2C008E26999
:103850006046D27A52B290444746BF00B846FF58FD
:1038600007404046C750C058BFF35F8F57461740C8
:10387000B8463700404687404EF20010CEF20000B6
:103880008146520992004A445751176040F2C008DD
:10389000E269D27952B29044404680008046C058D6
:1038A0000700604607404046C750C058BFF35F8FCF
:1038B00057461740B8463700404687404EF2001042
:1038C000CEF200008146520992004A4457511760D7
:1038D00040F2C008E2696746527A52B290444046CC
:1038E00080008046C05807404046C750C358BFF3C9
:1038F0005F8F4EF200135746CEF2000317409C46EE
:10390000BE40520992006244565116600323584645
:1039100018406D331843236A98704B890020238127
:1039200044F65513C5F243336360F0BCBB46B24660
:10393000A946A046F8BD5E70022801D110252A4391
:10394000D2B2DA7157E73D300243B23025E7C046C4
:1039500000F8FFFFFFFFFEFF70B5EFF30383103B9E
:103960005BB21A0046F20001C032C4F200019200BC
:1039700050581D4C20405050525844F6E0329B00A5
:10398000C2F200029858C3691B6913B1036913B1ED
:1039900070BD036983B97F23026A91780B400421CB
:1039A0000B4393700023C360436A002BF0D0802246
:1039B0000021FFF755FEEBE7032182781140022931
:1039C0000AD0C168056A0C78EC709207920F9B1AB6
:1039D0008A180361C260DAE74FF60065C1680C8897
:1039E0002C43056AEC81F0E7FFFFFEFF10B582B0C3
:1039F000EFF30383103B5BB21A0046F20001C032C2
:103A0000C4F20001920050581F4C204050505258B0
:103A100044F6E0329B00C2F200029C580323A278D5
:103A20001340022B0DD0236A5979A369C9B20191C1
:103A300083B9636A1BB104222000FFF711FE02B0B4
:103A400010BD40F2FF11236A1B8A1940A36901913E
:103A5000002BEED09207920F606901A903F05CFB86
:103A6000A37862699B079B0FD2186261A269D31A7F
:103A7000A361002BE3D1636A002BE0D00122002177
:103A80002000FFF7EDFDDAE7FFFFFEFF10B5EFF3D3
:103A9000038444F6E033103C64B2C2F20003A20097
:103AA000D0587B23026A91780B409370436A1BB114
:103AB00002220021FFF7D4FD230046F20002C033AA
:103AC000C4F200029B0099580248014099509B584B
:103AD00010BDC046FFFFFEFF70B5EFF3038444F650
:103AE000E033103C64B2C2F20003A200D0580323BA
:103AF00082781340022B22D0036A5979C9B2382246
:103B00001D792A40ED0602D51D7FED0714D5382614
:103B10001D79B5431D71436A0BB1FFF7A1FD230069
:103B200046F20002C033C4F200029B0099580748D5
:103B3000014099509B5870BD40252A43E7E740F269
:103B4000FF11036A1A8A1140D9E7C046FFFFFEFF42
:103B5000F8B5436844F200041A782823C4F2040438
:103B6000E25406000F00C820012102F00BFF2422BE
:103B70000121A35C8B43A354A35CDB07DD0F002B67
:103B8000FAD173681B78012B02D1BB886585A385A8
:103B900044F2000200212423C4F20402D15424314F
:103BA000535CDB09002BFBD10220535C03435354CD
:103BB00044F200022421C4F20402535C9B07D80F94
:103BC000002BFADB2223D0544020535C0343535490
:103BD00044F200022421C4F20402535C5B06FCD5CB
:103BE000F8BDC04610B54168FFF7B2FF002010BD18
:103BF000F0B54546DE4657464E46E0B511254368CA
:103C000084465D57884683B06C09002D00DAACE02D
:103C10004EF200131F22CEF20003A4001B592A40CB
:103C2000D34001221100194089461A422BD144F297
:103C3000000222210220C4F20402535C03435354C5
:103C400020302039135C1942FCD02B0046F20002D0
:103C5000C033C4F200029B00995856480140995065
:103C60009B58BFF35F8F4EF200121F23CEF200026B
:103C700091461D401E3BAB4040F280124C44A35085
:103C8000236040F2000944F2000340F2000AC4F24B
:103C9000040362465146117298781979C0B2CAB2CB
:103CA000614601929F791E7A9D7A1C7BDA89097A96
:103CB000FFB2F6B2EDB2E4B292B20029E9D1D2B2CB
:103CC00092460209934692005A44520093460F22AC
:103CD000414610405844C0B208600199080981006B
:103CE0008B46019958444000114041184046C9B2E2
:103CF0004160B906890F8800091849001740CF199B
:103D00004146FFB28F60310988000918490016400A
:103D10008E194146F6B28E612909880009184900BA
:103D200015404D194146EDB2CD60210988000918B2
:103D3000490014400C194146E4B2013C0C61514663
:103D40000909880009185046490002408A1841466E
:103D5000D2B264324A614A464AB1002003B0F0BC94
:103D6000BB46B246A946A046F0BDA4005FE72221AB
:103D700002205A5C82435A5444F200022030C4F2BA
:103D800004022039135C1942FCD1634611221F2121
:103D90005B689A561140530901228A404EF2001185
:103DA0002033CEF200019B005A50BFF34F8FBFF378
:103DB0006F8FD2E7FFFFFEFFF0B5C64644F2000565
:103DC000242400B5C4F204052C5DE406E40F84420B
:103DD0001DD000262E242E552E36AC5D002CFCD195
:103DE000012640F2100C242706403601B0466646F4
:103DF000EC5DB44346463443EC5544F200052426BA
:103E0000C4F20405AC5DE406E40F8442FAD1012853
:103E100011D03F2192010B4044F200011A432E239E
:103E20002E20D2B2C4F20401CA540B5C9A42FCD1D7
:103E300080BCB846F0BD44F200042426C4F2040459
:103E4000A55DAD06ED0F8D42E3D02027A55D0840AE
:103E5000BD43400128432425A055605D8006C00F66
:103E60008142FAD1D5E7C046F8B544F200032424D4
:103E70000125C4F204031A5DAA431A551A5DD2073C
:103E8000FCD40A220E78B6FBF2F7BD00ED196D00E6
:103E9000751B0E793C01B6FBF2F72C43BD00ED1902
:103EA000E4B26D009C70751B3C012C430D7AE4B2AA
:103EB000B5FBF2F71C71BC00E41964002D1B3E0138
:103EC0002E433F2535400E7E9D71B6FBF2F7BD00B7
:103ED000ED196D00751B0E7B3C01B6FBF2F72C4310
:103EE000BD00ED19E4B26D001C72751B3C012C4342
:103EF000E4B29C720C6949690134E4B2B4FBF2F794
:103F00006439C9B2B1FBF2F2BE00F61976003D0188
:103F1000A41B2C43E4B295001C731401AA18520090
:103F2000891A2143C9B2D98143681A786AB144F227
:103F3000000224210120C4F20402535C03435354C1
:103F4000535CDB07FCD50020F8BD98684368827895
:103F500041780078FFF730FFE9E7C04644F20002FD
:103F600070B522250F24C4F20402565D0B013440C3
:103F700023432224DBB25355135D1B098B42FBD133
:103F80000421135D0B43135544F200022224C4F2B2
:103F90000402135D1942FCD0436846F20001DB7B4A
:103FA000C4F200015BB21A00C032920050580C4CAF
:103FB000204050505258BFF35F8F1F2101221940FB
:103FC0008A404EF20011CEF200018C4640F2801180
:103FD0005B099B0063445A501A60002070BDC046C4
:103FE000FFFFFEFF70B50D24436882B01C57002C04
:103FF00012DB1F22630914401E3AA2404EF2001445
:104000002033CEF200049B001A51BFF34F8FBFF351
:104010006F8F0D2443681C572423CA5C002A00D1EB
:10402000EBE00D781A3BB5FBF3F083001B185B0047
:104030000201EB1A1343802252421A436B46D2B25A
:1040400007331A7044F200001A78C4F20400D2B2A6
:10405000027425228A5C002A00D1CCE00A200E7965
:10406000B6FBF0F5A800401940002A01301A1043B1
:10407000802252420243D2B21A7044F200001A78EF
:10408000C4F20400D2B2827426228A5C002A00D1D3
:10409000AFE00A200E7AB6FBF0F5A8004019400008
:1040A0002A01301A1043802252420243D2B21A70BF
:1040B00044F200001A78C4F20400D2B202752A2237
:1040C0008A5C002A00D192E0802288695242024331
:1040D000D2B21A7044F200001A78C4F20400D2B2CC
:1040E000827527228A5C002A00D17DE00A200E7B9F
:1040F000B6FBF0F5A800401940002A01301A104321
:10410000802252420243D2B21A7044F200001A785E
:10411000C4F20400D2B2027628228A5C002A61D05E
:104120000A200A690132D2B2B2FBF0F5A8004019A8
:104130004000121A2E011643802252423243D2B25C
:104140001A7044F200001A78C4F20400D2B28276E7
:104150002922885C002843D00A254A69643AD2B2F1
:10416000B2FBF5F6B500AD196D003101521B0A43E3
:10417000D2B21A7044F200021B78C4F20402938394
:104180007F23917FC0010B402221034301209377BD
:10419000535C0343535421302139135C1942FCD042
:1041A000230046F20002C033C4F200029B0098587C
:1041B000144D284098509B58BFF35F8F1F23234016
:1041C00099404EF20013CEF200039C4640F2801359
:1041D0006409A4006444E1502160002002B070BD75
:1041E0001870C7E71A70ACE701221A708DE71A70D1
:1041F00070E71A705CE71A703FE76B4607331A7076
:1042000020E7C046FFFFFEFFF0B5C6464B6900B58C
:10421000C3608B69416043610023036103720D0039
:104220000400FFF795FC0F22AA56002A20DB4EF26D
:104230000013CEF200039C4640F20038910889003A
:10424000614440F2FF0C434603206646CF58AB7BE7
:104250001040C0009B013340864083404046B74336
:104260003B430B5044F6E0339200C2F20003D450BB
:104270000D22AA56002A20DB4EF20013CEF20003D4
:104280009C4640F2003891088900614440F2FF0CDE
:10429000434603206646CF582B7B1040C0009B014D
:1042A0003340864083404046B7433B430B5044F67F
:1042B000E0339200C2F20003D4501122AA56002A21
:1042C0001CDB4EF200130320CEF200039C462B7C35
:1042D000FF2540F200361040C0009B012B40854076
:1042E00083409108890061448F599200AF433B435A
:1042F0008B5144F6E033C2F20003D45045F24343FD
:10430000C0F252030020236080BCB846F0BDC04616
:10431000F0B5C64600B582B0EFF3038444F6E0334F
:10432000103C64B2C2F20003A200D558E968C1B1E2
:104330006B6828695B7BE8465BB21B1B5A1E934186
:10434000DBB29C46E8B14246070048CF48C263460C
:1043500003706B69436088472B6913B1404606C8F8
:1043600006C3230046F20002C033C4F200029B00E1
:1043700099580548014099509B5802B080BCB846F6
:10438000F0BD4046E3E7C046FFFFFEFFEFF30383C7
:1043900044F6E032103B5BB29900C2F200028A5848
:1043A0000121117246F20002C033C4F200029B00E8
:1043B00099580248014099509B587047FFFFFEFFF3
:1043C0000023036000207047FF2010B540F6000472
:1043D0000B0A084019010918C4F2040489000B599A
:1043E00000209B07DB0F137010BDC0460023C4F2F2
:1043F00004039C46090A490161444B68002013806C
:104400007047C0460020C4F2040084461800090A20
:1044100090430004134049010343614400208B6032
:104420007047C046FF2001230840834052B91B0457
:104430000022C4F204029446090A490161440020A2
:104440008B6070474FF6FF721340F1E70020C4F213
:10445000040084461800090A490110B561440C683B
:1044600010402043934398430860002010BDC0468D
:104470000023C4F204039C46090A490161444B68C5
:1044800000201B0C138070470020C4F204008446F7
:104490000B0A5B0163445868FF231940FE3B8B40C5
:1044A000000C99B203405B1A59424B410020137033
:1044B0007047C0460020C4F2040084461800090A70
:1044C0009043000413404901034361440020CB6042
:1044D0007047C0460B0A10B55B01012A10D00022BC
:1044E000C4F204029446FF208022014052028A4016
:1044F0006344DC682243120C12040020DA6010BD11
:104500000020C4F204008446FF2001408A401100CC
:104510004FF6FF726344DC68114021430A40ECE728
:10452000F0B5DE4657464E464546E0B583B0EFF35C
:104530001082012383F3108844F6DC33C2F20003B7
:1045400001931B6833B940F60051C4F20401CB70EB
:104550004033CB7001990B6801330B6082F31088F4
:1045600003889A46BBB3802340F600055B02994658
:10457000284B002240F2FF089C464168C4F2040523
:104580000AE043461E4023019B1901329B0092B270
:104590005851083192451ED04B468E880868340A1F
:1045A0001842EED043461E4023019C19A7006446E2
:1045B00000977F599B1927403C00009F01327C5196
:1045C000674607403C00009F9B0092B27C51083137
:1045D00058519245E0D1EFF31082012383F3108804
:1045E000019B1B681BB101990B68013B0B60019B90
:1045F0001B6833B940F60051C4F20401CB7080331C
:10460000CB7082F3108803B0F0BCBB46B246A9461B
:10461000A046F0BDFFFFFEFF45F2542310B5C5F2E2
:104620004F0303600800FFF77BFF002010BDC0466A
:1046300010B50800FFF774FF002010BDF0B5EFF3D0
:104640001084012383F3108844F6DC33C2F20003A4
:10465000186830B940F60055C4F20405E8704030DF
:10466000E87018680130186084F31088D00321D4F2
:10467000FF24080A0C40010140F600000919C4F2A9
:10468000040089000A50EFF31082012181F31088A1
:10469000196811B11968013919601B6833B940F6FE
:1046A0000051C4F20401CB708033CB7082F31088C8
:1046B0000020F0BDFF2440F60005080A0C4001016F
:1046C0000819C4F2040580004759034E37401640CC
:1046D00047514651D0E7C046FFFFFEFF8368C268DE
:1046E00000209A607047C0468368C26800205A6004
:1046F0007047C046F0B5C64600B50500806984B075
:104700008C46904601AC98B12300060086CE86C345
:104710006346037143468360EB6903606B699847A6
:10472000AB690BB107CC07C304B080BCB846F0BD81
:104730002000EDE770B5554255418C6E013425B926
:10474000A24202D2013A1A6070BD049D496BED0786
:104750000CD50078C902C90E03280CD9012009091B
:10476000884382B180B903225A60EDE70078C90618
:10477000C90E0328F2D80C200140043948424141B7
:10478000C8B2002AEED110B902225A60DCE7002C30
:10479000FAD0E8E7F0B5CE46474680B500283DDBC5
:1047A00040F2FF094EF2001403254E46CEF20004FB
:1047B000A44640F200370540ED00AE4083089B0060
:1047C0006344DC598901B44326004C460C40AC409C
:1047D0003443DC5144F6E0338100C2F20003CA5096
:1047E000030046F20002C033C4F200029B00995855
:1047F0000C4C214099509B58BFF35F8F1F2201231F
:10480000024093404EF20012CEF20002944640F273
:10481000801240098000604483500360C0BCB946E8
:10482000B046F0BDFFFFFEFFF0B54546DE465746F9
:104830004E460122E0B50D000B7C110099400400AA
:1048400085B0C1604560002B00D102E1027440F2E6
:104850008072C0F240029446002063441B02A360B1
:104860006B696361AB69A061E361EB699A46EFF341
:10487000108C012383F310882A7C46F6FC71534286
:104880005A41C4F20401CF685301413B3B40CB6025
:10489000CB688CF310884AF20053A1682E780B6025
:1048A000C862C86388642A7A6B68520812065F1E61
:1048B000032E00D1CFE0CA62802212060A614A614B
:1048C0008A615246926948628862CA615246D269D8
:1048D0000A6252468F664F66D76A02AA9046012244
:1048E000524291460292424650603200002E00D061
:1048F000EDE0380040F2030C5B084B4402930132B8
:104900004B658B65002800D070E053461B78002B68
:1049100000D079E0287853469B782BB35346DB7858
:1049200098469B01994643464E461B0133439B469E
:10493000022800D1C5E0032800D1D3E04646731E0B
:104940009E417642B04640F2030943464E461E4021
:10495000B04640F20609C84446465B4633431B0452
:104960001F4380235B041F4340F288080023464610
:104970008B638B51564640F221082033F35C464648
:104980005B03994653469E5D4B46760733431F4370
:10499000AA23DB030B64012832D0E3681220CB602A
:1049A00063464F630B630A63697C22002856FFF756
:1049B000F1FE52462223D15C0233D0562200FFF78B
:1049C000E9FE52462323D15C0233D0562200FFF782
:1049D000E1FE45F254030020C0F24703236005B016
:1049E000F0BCBB46B246A946A046F0BD00238820D5
:1049F0008B630B50AA232878DB030B640128CCD1EE
:104A00000023CB640B65C8E753465B78287898464B
:104A10009B01994643464E461B0133439B46022861
:104A200052D003285BD04646731E9E417642B04664
:104A300040F2030943464E461E40B04640F2060986
:104A4000C84446465B4633431F4340F200131F43AE
:104A500061E70374FBE680235B021A4380231B0695
:104A6000CA620B614B618B6153469B6948628862E5
:104A7000CB615346DB690B6253468F664F66DF6A34
:104A800002AB984601235B420293434658600023E1
:104A9000EA68606800934346FFF74CFE40F2030C5F
:104AA0004246664640F201085068A16802040006CA
:104AB000024316435046B4464646029BC06A324300
:104AC0001EE740F2090847E740F20908B9E7012E5E
:104AD000DDD13800012240F2030C4B4610E740F2D2
:104AE0000308AEE740F2030836E7C046F0B5D64605
:104AF0004F464646C0B5EFF30383103B5BB21A0046
:104B000046F20006C032C4F20006920091592048D5
:104B100040F2003A0140915146F200018146C4F250
:104B20000001980045185146695844F6E031C2F238
:104B3000000140584168097801290AD043691BB136
:104B400000220021FFF7D6FDE0BCBA46B146A846D8
:104B5000F0BD40F200088468C768A7604746A764B4
:104B6000E76427654F469459274097515246AA5803
:104B7000BFF35F8F1F245A092340994013004EF260
:104B800000146033CEF200049B001951D6E7C046F2
:104B9000FFFFFEFF4CF2000343F6B072C4F27E0347
:104BA0009A5A812313405A1E934100200B7070477C
:104BB00044F66C4370B54EF20005C2F2000319686A
:104BC00007240B00C4F201052A6A120E224093400A
:104BD000D34040F6FF02C0F23D02C360934200D9C9
:104BE00073E044F24022C0F20F0293420CD048F22C
:104BF0008042C0F21E02934206D04CF2C062C0F264
:104C00002D02934200D07DE04EF20002C4F2010278
:104C1000126A5201520F9140D14044F23F22C0F239
:104C20000F02944644F240226344C0F20F02B3FBE9
:104C3000F2F3C36044F23F23C0F20F039C4644F2F8
:104C400040236144C0F20F03B1FBF3F140F2835300
:104C500006224B43B3FBF2F3036140F276334B433E
:104C6000B3FBF2F3436158234B43B3FBF2F383618D
:104C700046F6B823C0F205034B43B3FBF2F3C3611E
:104C800046F2D063C0F205034B43B3FBF2F3036279
:104C90004EF66853C0F222034B43B3FBF2F3436278
:104CA0004CF20003816043F6C0720020C4F27E0320
:104CB00098549022985C0024012804D00120985434
:104CC000053006F099FE200070BD2A6A120E1440CD
:104CD00044F23F22C0F20F02A140944644F2402227
:104CE000E140634448F63F24C0F20F02B3FBF2F206
:104CF000C0F2F714C260A3429CD9D3079AD50132FF
:104D0000C26097E7F034FF34DDE7C0464CF20003A1
:104D100043F6B07210B504001949C4F27E039952EB
:104D20008168062006F068FE102006F08DFE032044
:104D3000A16806F061FE63681A7802B910BD5B7C59
:104D400046F200015BB21A00C032C4F200019200C8
:104D500050580C4C204050505258BFF35F8F1F21C9
:104D6000012219408A404EF20011CEF200018C4619
:104D700040F280115B099B0063445A501A60DDE7E2
:104D800080AAFFFFFFFFFEFFF8B50B78040041602B
:104D90003BBB342300222000E254FFF709FF00B19F
:104DA000F8BD2000FFF7B2FFE3681F2B52D94CF289
:104DB000000140F2D8103F25C4F27E01203B0A5882
:104DC0005B081F332B40AA4313430B50200006F00F
:104DD0000BFE0028E4D144F24E53C4F65073236016
:104DE000DEE74EF2001211230325CEF20002CB566D
:104DF00094460A7CFF2140F200361D40ED009201EE
:104E00000A40A940AA409808800060448759194D7B
:104E10008F433A43825144F6E0329900C2F20002D5
:104E20008C501A0046F20001C032C4F20001920018
:104E30005058284050505258BFF35F8F1F21012215
:104E400019408A4040F280115B099B0063445A502C
:104E50001A609EE71F204CF2000140F2D815013B7A
:104E600018403F23C4F27E014A599A43130003437A
:104E70004B51ABE7FFFFFEFF10B51823122241692B
:104E8000040006F0E9FD48B9A26A531CA362E36A74
:104E9000591CE162216B481E206300B910BD01213D
:104EA000CBF6F0518C464CF2000140F210106344F6
:104EB000C4F27E011C0C0C529BB208380B5240F21B
:104EC000301352780138CA5081221C3BCA54FF3833
:104ED000E4E7C04670B5342316000022C2544FF6F2
:104EE000FF720400914231D94268890A12788D021A
:104EF0000AB10222C2542000FFF708FF4CF200035F
:104F000040F204110120C4F27E035A5C82435A54D9
:104F10000023CBF6F053E8188422A0622663B10286
:104F200006F082FD636800251B780BB1280070BD78
:104F3000216A112220007143193306F08DFD05000E
:104F40000028F3D1200006F04FFDEFE7C90A40F634
:104F500000033200C90206F057FD0500E6E7C0462F
:104F600070B50500002434202C544FF6FF74A24283
:104F700005D8280006F060FD0400200070BD2B63FA
:104F80006B68EA621B78A9620BB101232B542800DD
:104F9000FFF7BCFE4CF2000340F204110120C4F202
:104FA0007E035A5C82430020CBF6F050844640F2E8
:104FB00010105A54EA6AA96A6244140C1C5292B244
:104FC00008381A5240F23012097800249950812191
:104FD0001C3A99546B681B78002BCED12800FFF740
:104FE0004BFF04000828F9D00028C6D1280006F09D
:104FF000FBFCC2E770B582B0EFF30383103B5BB2FA
:105000001A0046F20001C032C4F20001920050586A
:10501000284C20405050525844F6E0329B00C2F2D7
:1050200000029C583423E55C012D21D0022D2CD0A8
:1050300040F2F81310222000A16906F00DFDE8B936
:105040004CF2000340F22812C4F27E039B586E46D5
:105050001B072BD402233370200006F0C5FC6268C6
:1050600053681BB1D26830007260984702B070BDBF
:105070002000FFF701FF0823984388B1200006F0C5
:10508000CBFC6E4607233370E6E71923112220007C
:10509000216A06F0E1FC0028F0D16E463070DBE7B3
:1050A000236B002BE2D16E463570D5E703233370B6
:1050B000D2E7C046FFFFFEFF70B5437923BB42F243
:1050C0000003C4F208031A78920700D4ADE0037914
:1050D000032B00D1B0E0702244F6E0338256C2F2D6
:1050E00000039200D0507122825606219200D050C7
:1050F000722282569200D05042F20003C4F208039A
:105100001A788A431A701FE00379032B00D193E0C9
:10511000702244F6E0338256C2F200039200D0506F
:105120007122825606219200D0507222825692003D
:10513000D05042F20003C4F208031A780A431A70EE
:105140001A7805398A431A708479EF232200113ABC
:105150001A425DD04D224C21825C415C42F2000338
:10516000C90192010A433F21C4F208031D780D4092
:105170002A43D2B21A70202237255E78825CAA4375
:1051800035402A435A70692233269D78825CB543A4
:1051900032402A439A70092C51D01F225A711A6842
:1051A00035490A401A601A68520052081A60802273
:1051B000996852020A439A608022996892020A43CF
:1051C0009A6080229968D2020A439A604E23C25C98
:1051D00042F20003C4F208031A734F22825C5A732E
:1051E0005022825C9A735122825CDA735222825C72
:1051F0001A745322825C1A755422825C5A755522A5
:10520000825C9A755622825CDA755722825C1A7625
:1052100002230371037142F2000301210020C4F252
:1052200008031A780A431A7070BD1B78DB0700D494
:105230004DE741F27070F7E741F27170F4E78022B8
:1052400059711968D2050A431A608022196812063A
:105250000A431A608022996852020A439A609A6847
:1052600006490A409A609A6805490A409A609A6815
:1052700004490A409A60A9E7FFFFFFBFFFFFFDFF57
:10528000FFFFFBFFFFFFF7FF416780214250C3672D
:1052900000207047F0B557464E46DE464546E0B51D
:1052A0000389070040F2000A002687B0002B00D1D6
:1052B000B5E040F201090AE040F2010C4B46E2443D
:1052C000137001363B89B6B2B34200D89EE03B6909
:1052D0009A199B5D002BEFD140F2000C72009219DD
:1052E000930005937B696146985DD4460393B2466B
:1052F000002392B2019101004C4619410C424CD15D
:10530000B97901296AD08A21BC6B7D5A5100095BA9
:105310006D088B46FF260399059C51440291796ADA
:105320000C590494A40A34404FF6FF7601346543C7
:10533000ED0835405E46751BAB4625012C1B6825E4
:10534000E4007D5DE4082C419500A8469BFBF4F445
:105350008B46C3445D46296840F2FF350D40651910
:105360002DD440F2FF36B54240DD4946994040F227
:10537000FF35401802990870796A786941448B4674
:105380000390096850440290890A89020D435946E6
:105390000D6002990878010019414C462140019C9A
:1053A0000133A0468844414601320191032BA2D12A
:1053B0005646E246032984D13B699A197CE74C465C
:1053C0009C400299001908707869796A03904144F9
:1053D00050448B46002509680290D5E78731FC6A66
:1053E0007D5A5100095B6D088B4693E7002CCBD1A9
:1053F000494699404018029908707869796A039083
:10540000414450448B4602900968BDE7534506D09D
:1054100007B0F0BCBB46B246A946A046F0BD01238A
:10542000FB71F5E703790020032B00D0704741F2B0
:105430007170FBE730B50379022B2AD142F20003E9
:105440001121C4F208031A68134C4A401A60302331
:10545000C16ECA5646F20003C032C4F20003920085
:10546000D5582540D550D25831228A56C0329200A4
:10547000D5582540D550D25832228A56C032920093
:10548000D1582140D150D3580123037100234381C7
:105490008381002030BDC046FFFFFEFF20B345F2F0
:1054A00055330268C4F254339A4212D144F66E3234
:1054B000C2F200021388017A5B1ADBB21380032365
:1054C00082791340012B06D0002303710360002072
:1054D00070470720FCE744F68432C2F200021388CA
:1054E000591AC9B21180EFE70120F1E710B503792D
:1054F000022B1AD0C379ABB1032382791340012B5D
:1055000001D0002010BD0489002CFAD00023026BCA
:105510000232088801339BB2108002310432A34268
:10552000F7D1EEE741F27270ECE741F27070E9E713
:10553000036942889C4637236244920192FBF3F24E
:1055400010B5C468121B4A80426983889446492278
:1055500063449B0193FBF2F31B1B8B800023C380EE
:10556000836010BDF0B54546DE4657464E46E0B571
:10557000037905000C008BB0022B3CD0C379002BC3
:1055800036D05AB1012A39D0022A20D000200BB0DF
:10559000F0BCBB46B246A946A046F0BD8379012BBC
:1055A000F4D10389002BF1D00021866A00234A0040
:1055B00052185200B218D05AE0520233062BFAD1D8
:1055C00001312B8989B206348B42EFD8DEE783792B
:1055D000012BDBD10389002BD8D00023016ECA5CDC
:1055E000013322802A899BB202349A42F7D8CDE750
:1055F00041F27270CBE741F27070C8E78379012BFA
:10560000C4D10389002BC1D040F20008A946454609
:105610008846C06A4B46FF246F007F195B6AB90059
:10562000CA586826920A224001321401A41A4A4636
:105630008446925D7F00E400E408BC44591814419C
:10564000AA466046002240F2000B0D0003AE01970F
:1056500040F2FF3703AB9918AB5804323B40634329
:10566000CB600388023033805B460236B3800C2A5D
:10567000EED1614603A8019FFFF75AFF4B465546FE
:10568000D86A41460023C719FA5ACA520233062B78
:10569000FAD14B46884640F2060C01351B89ADB263
:1056A000E044AB42B6D871E7F0B557464E46DE4609
:1056B0004546E0B589B0894612A982460978072B8C
:1056C00000D1A1E0072900D195E04946CC00591C42
:1056D00094FBF1F444F6C826C2F20006318CA142D4
:1056E00000DDBFE03000012122300788A74200DD45
:1056F0008EE0013102300C29F7D144F6C820C2F205
:1057000000008446510088468918C90061444E3122
:1057100009883C0002910021002540F20A0C039107
:10572000614642449200624410311C324F005200E4
:10573000F15BB25A04910692002100220591079272
:10574000072B00D174E000275E1C32003B002000D4
:10575000290001F0CBFA4B07C2081A43CB10009284
:1057600001933200029803993B0001F0BFFA4B0706
:10577000C4081C43CD103200069807993B0001F085
:10578000B5FA4B07C2081A432000CB102900801A33
:1057900099414A460023A046009C019DA41A9D41C0
:1057A00022002B0001F0A2FA32003B00834689461A
:1057B0000498059901F09AFA4C07C2082243CB10CD
:1057C000009C019DA41A9D4122002B005846494689
:1057D00001F068FA4346181A4FF6FF73984201D950
:1057E0004FF6FF705346188009B0F0BCBB46B24676
:1057F000A946A046F0BD0022002340F2000B40F273
:10580000000940F20008E1E70729F4D04C4661E7BF
:1058100050008418A40064181C3480466000305A7C
:105820000139029000203C0000258C46039077E768
:10583000069A079B02980399260080462F00801A3B
:1058400099414A460023B61A9F4132003B0001F0BD
:105850004DFA22002B008346894604980599121AB6
:105860008B41B3E75000821844F6C820C2F2000012
:105870008446D2006244128F0C0002920022002162
:10588000039200220025049105920691079257E7A2
:10589000F0B5DE4657464E4645466823E0B5C35C44
:1058A00093B0049383790700079302899346002AF3
:1058B00057D0984644F6C823002440F2FF3AC2F27B
:1058C0000003069362009446A146E1444A46FF2144
:1058D0007B6A96009A599D19920A114005910131EF
:1058E0000A01511A049A03941141002254460BAB49
:1058F0009818AB58043223404B43C3600C2AF5D1AF
:105900004346039C012B33D0092B06D00134A4B2AB
:10591000A34526D9BB799846D4E762463B6B9D19CF
:105920009B5B6E889846BB6A995A069B1B78022B34
:1059300000D1A7E06980B98B01290CD96A883604A7
:1059400012044644B2FBF1F3B6FBF1F09B191B1AAB
:105950002B801B0C6B803B8901349B46A4B2A34572
:10596000D8D813B0F0BCBB46B246A946A046F0BD9D
:105970004A4606A98C4655001A226244914640F2D6
:105980000008FB6A0BAEBA6A5819515B069A127886
:10599000022A49D0018042463180F2800236023527
:1059A000B145F0D1BB8B002BD5D03B6BA5009C46FD
:1059B00065446B880BA99B462B8808000593FFF76D
:1059C000B7FD06ABDA8A998A1B8B881A8446089041
:1059D0000392D01A6246CE1A09960A90002A02DA79
:1059E000039A521A0892002E01DA5E1A09960028CC
:1059F00002DA039A981A0A90089A099E90460A9A1F
:105A000070009446804518DA50006044C20F9146F9
:105A100048444010804510DA2C200322039BCB1809
:105A200006A909180A7012E0079B049A0093059BC7
:105A3000FFF73AFEFB6A595BADE766452ADB039A3E
:105A40002C209446062206A9091863440A704FF6D2
:105A5000FF72934201DD4FF6FF732C226B8006AB81
:105A60009B181B783A6E13555B461904059B6A8890
:105A70009C46BB8B61441204B1FBF3F0B2FBF3F321
:105A80005B1864E7079B049A0093A81C059BFFF72B
:105A90000BFE50E72C200522CB1806A909180A7026
:105AA000D5E7C04670B5037904000D00022B3DD048
:105AB0000379032B19D0A38B002B28D00323A279C1
:105AC0001340012B01D0002070BD2389002BFAD098
:105AD0000023216B9A008A18528801332A80228978
:105AE0009BB202359A42F5D8EDE7C379012B11D06C
:105AF0002000FFF7CDFEE37923B90222A379934377
:105B0000012B0FD001232371A38B002BD6D141F29F
:105B10007270D9E7838BC28B9342E9D009D20133EB
:105B20008383E5E72000FFF7B5FBEBE741F27070F8
:105B3000CAE78283DCE7C046F0B54546DE465746F5
:105B40004E4645F25533E0B50268C4F254330400C2
:105B50000D0087B09A4201D100F0F8FC0323497987
:105B60000B40012B01D100F0F9FB002306890371E2
:105B7000C566007A44F66E3C44F66C32C2F2000C04
:105B80006346C2F2000291461B8899444A4622614C
:105B900044F67032C2F200029F1844F69832C2F204
:105BA0000002904644F6603267619F004744C2F2AB
:105BB0000002A76190465F00FF186246C3185C2090
:105BC000BF00DBB247446762138023522B786371B6
:105BD0006B8BE3830023A383092901D100F0F5FB3C
:105BE00001202B7F4340E37108232879C7003B4005
:105BF0008F013B432027E3554C236F78E754AF7860
:105C00000133E754EF790133E7542F7A0133E75436
:105C10006F7A0133E754AF7A0133E754EF7A0133F7
:105C2000E7542F7B0133E7546F7B0133E754AF7B9D
:105C30000133E754EF7B0133E7542F7C0133E75402
:105C400002273A00A171AB7902401B014907C90F35
:105C500013430B4369216354002800D0BFE168233C
:105C6000E754002300204A467EB943E05179167973
:105C700009065288B60231430A43616A0133CA51A8
:105C800022899BB29A4235D92269D05462699F0019
:105C9000D0546969A2698846D0515A00D6186979EA
:105CA0009246720042440929E0D0B600B346676AC2
:105CB000BB44072900D19DE1517909068846117935
:105CC00052888902894641464E46314311430A00B3
:105CD000884659460A605246D11801318A00414629
:105CE000B95059460968BA185160013322899BB2EC
:105CF0009A42C9D83023702240F23109EB5640F263
:105D00000030A3544A46A95C4032A1543F3AA95CF2
:105D10004032A1544EF20011CEF2000188469A089A
:105D20000326920042441758FF201E40F600B04060
:105D300087438020B04044F6E0380600C2F20008F5
:105D400040F2003041463E4316509A001E00545027
:105D500046F20002C036C4F20002B600B758A748A7
:105D60000740B750B658BFF35F8F01274EF20011BE
:105D70001F26380040F2801BCEF200018A461E40EA
:105D8000B04059465B099B0053445850186049463F
:105D900040F200306B569E08B6005644315803203E
:105DA00018408946C100FF208A4688404946814301
:105DB00089465046802181408A46494650460143E3
:105DC00040F20030315041469E0074501E00C036F3
:105DD000B600B15889480140B150B658BFF35F8F43
:105DE0001F2119400E003900B1400E004EF2001183
:105DF000CEF20001894659465B099B004B445E5038
:105E00001E60322340F20030EB569E08B6004E442E
:105E10003158FF20894603211940C9008840824635
